:02000000FE29D7
:100156001030B000080010309000A601BF01080062
:10016600CE20AE20AB20B920C020080080309600FB
:100176007F309500C03094000800FF309200910156
:100186008C10043093000800851D080030146300AD
:1001960000003010C7280730870086018801083024
:1001A60089008E130800C200C301420843020318E7
:1001B60008000930C1001C30C000C00BE028C10B8C
:1001C600E02800000130C0004008C307D828C2005C
:1001D600C401400803190929C301C30AC01BFA2830
:1001E6000310C00D0130C1004108C307F1280310F8
:1001F600C40D40084202031C04294008C2024414EC
:100206000310C00C0130C302031DFA28440808007D
:10021600C4000830C1004108C500C6014408C10039
:1002260007300310C10CFF3E031D14294608C20007
:1002360042074104C3004308C6000310C40D40082A
:100246004602031C28294008C6020130C502031DC8
:10025600112946080800B320D101D201CC010A3089
:10026600D6200130C7004708CC07CE01FE308500F6
:100276000430D620FF3085000230D6200130C7007A
:100286004708CE0703304E02031C39295208C8001E
:100296005108C7000730FF000310C70DC80DFF0B3C
:1002A6004F294708D1064808D2065208C800510807
:1002B600C70009300310C80CC70CFF3E031D5D299B
:1002C6004708D1064808D2065108C800C7014708A2
:1002D600D1064808D2061430C7004708C0005108A6
:1002E6000B210A3EC8004808CD00CF01D001812964
:1002F6000130CF070318D00A0030D0074D08C700D9
:10030600C80148085002031D8A2947084F020318EE
:1003160099290130D62085197B29FE3085001430B5
:10032600D6204F08D1065008D206CC014D08C7008A
:10033600C80150084806031DA2294F084706031D99
:10034600F729FB308500D3018519EA29FF3085009E
:100356000A30D6200A30C7004708C0005308EA20F2
:10036600C8004808C900CA0149084A020318C82932
:10037600FD3085000630D620FF3085000230D620BD
:100386000130C7004708CA07B7290A30D620CB0173
:100396000A30C7004708C00053080B214B02031858
:1003A600E129FD3085000430D620FF30850001307C
:1003B600D6200130C7004708CB07CB295308C70012
:1003C600C8014708D1064808D206CC01F729CB3028
:1003D600C700C70BEC29EF290130C7004708D30730
:1003E60064305302031CA729FF3085004C0803190B
:0A03F6003229C720322983012E2985
:02400E00AE3EC4
:00000001FF
