:020000040000FA
:02000000FE29D7
:100128001630B00008009001A601BF0108009F200A
:1001380097209420080004308700860188018901EF
:100148008E130800C200C40140080319C528C30162
:10015800C30AC01BB6280310C00D0130C1004108F6
:10016800C307AD280310C40D40084202031CC02871
:100178004008C20244140310C00C0130C302031D1E
:10018800B62844080800C401C501401CD12842080B
:10019800C4070318C50A4308C50701300310C20D78
:1001A800C30DFF3E031DD22801300310C10CC00C43
:1001B800FF3E031DD92840084104031DC9284508EE
:1001C800C1004408C00008009B20DC01FF30DA00B1
:1001D8005A08C6008030DB005B08C7005C081A219B
:1001E8004608DF004708E0004808E1000130DA006F
:1001F8005A08DC0705145F08DA005A08DD005D08B4
:10020800031909290130DD02032905105F03FF3AAC
:10021800DA005A08DE005E08031915290130DE02EB
:100228000F291629172918290000EA28D00046089E
:10023800031D24294708C9004908D7004708D429BD
:100248002B30C9004908C0005008A620CA004A0837
:10025800D1005108C900CA014908C0004A08C100B4
:10026800D530C200FF30C300C72050084007D40073
:100278000030031801304107D5005508C100540863
:10028800C0000630C2000030C300C7204108CF00BC
:100298004008CE004708C900CA014908C0004A08FA
:1002A800C1004609CB00CC014B08C2004C08C30072
:1002B800C7204108CD004D08D6004F08C3004E089E
:1002C800C2004608C900CA014908C0004A08C1005E
:1002D800C7204108FF3ACB00CC014B08D4004C089A
:1002E800D5004708C900CA014908C0004A08C1002A
:1002F8005508C3005408C200C7204108CB004B086A
:10030800D200FF30C9004E084902C2004F09031845
:10031800013EC3004608CA00CB014A08C0004B088A
:10032800C100C7204108FF3ACC00CD014C08D400D9
:100338004D08D5004708C900CA014908C0004A0845
:10034800C1005508C3005408C200C7204108CB00AB
:100358004B08D300E6294708C9004908D7005308C5
:10036800BA295208C9004908D7004708C9004908EE
:10037800D8005608E2295608C9004908D700470896
:10038800C9004908D8005308E2295608C900490895
:10039800D7005208D4295308C9004908D70056087D
:1003A800C9004908D8004708E2294708C900490890
:1003B800D7005608C9004908D8005208C90049089A
:1003C800D900F7295108003A0319AF29013A03194E
:1003D800B529033A0319BF29013A0319C929073A6C
:1003E8000319CF29D9295708C6005808C700590842
:0803F800C80008008301E82899
:02400E00E63E8C
:00000001FF
