:02000000FE29D7
:10007E001030B000080010309000A601BF0108003B
:10008E00622042203F204D205420080080309600F0
:10009E007F309500C03094000800FF30920091012F
:1000AE008C10043093000800851D08003014630086
:1000BE00000030105B280730870086018801083069
:1000CE0089008E1308004808490403199728CD01AA
:1000DE00CD0AC91B7E2801300310C80DC90DFF3E85
:1000EE00031D73280130CC004C08CD077028490839
:1000FE004B02031D842848084A02031C8C2848081A
:10010E00CA024908031CCB03CB0201300310C90CF1
:10011E00C80CFF3E031D8D280130CD02031D7E2825
:10012E004B08C9004A08C8000800C501C6014008AE
:10013E0041040319D328C701C70AC11BB2280130D5
:10014E000310C00DC10DFF3E031DA7280130C400D2
:10015E004408C707A42801300310C50DC60DFF3E85
:10016E00031DB32841084302031DBF284008420265
:10017E00031CC8284008C2024108031CC303C30263
:10018E00451401300310C10CC00CFF3E031DC928DD
:10019E000130C702031DB2284608C1004508C00041
:1001AE0008004720D801D901D4015230CF002930A0
:1001BE00CE00CE0BE028CF0BE028E5280130CE0094
:1001CE004E08D407D501FE3085002130CF007630A1
:1001DE00CE00CE0BF028CF0BF0280000FF308500AC
:1001EE002930CF009430CE00CE0BFB28CF0BFB284E
:1001FE0000000130CE004E08D50703305502031C17
:10020E00EA285908CF005808CE000730FF00031027
:10021E00CE0DCF0DFF0B0E294E08D8064F08D9066E
:10022E005908CF005808CE0009300310CF0CCE0C61
:10023E00FF3E031D1C294E08D8064F08D906580844
:10024E00CF00CE014E08D8064F08D906FF3058050C
:10025E00CE0007305905CF004E08F43ED2004F08AD
:10026E000318013E013ED300D601D70144290130C7
:10027E00D6070318D70A0030D70753085702031DB5
:10028E004A2952085602031862291430CE00CE0BAA
:10029E004E29000085193E29FE308500A330CF007F
:1002AE005530CE00CE0B5929CF0B59295608D806FA
:1002BE005708D906D40153085706031D682952085A
:1002CE005606031DF729FB308500DA01DB0185197F
:1002DE00E529FF3085005230CF002930CE00CE0BFD
:1002EE007629CF0B76297B29D0016430C0000030EF
:1002FE00C1005B08C3005A08C2009C20400850028F
:10030E000318A429FD3085003130CF00B230CE0065
:10031E00CE0B8F29CF0B8F290000FF3085001130B7
:10032E00CF003A30CE00CE0B9A29CF0B9A2900007F
:10033E000130CE004E08D0077C295230CF00293034
:10034E00CE00CE0BA829CF0BA829AD29D1010A309A
:10035E00C8000030C9000A30C0000030C1005B0880
:10036E00C3005A08C2009C204108CB004008CA00B6
:10037E006A20480851020318DF29FD30850021301C
:10038E00CF007630CE00CE0BCA29CF0BCA29000083
:10039E00FF3085000930CF001C30CE00CE0BD529A2
:1003AE00CF0BD52900000130CE004E08D107AE2963
:1003BE005A08D8065B08D906D401F7290E30CE00AC
:1003CE00CE0BE72900000130DA070318DB0A0030F4
:1003DE00DB0704305B02003003195A02031C6E293E
:1003EE00FF30850054080319DC285B20DC288301CC
:0203FE00D828FD
:02400E00AE3EC4
:00000001FF
