:020000040000FA
:02000000FE29D7
:100106001630B00008008F208A2083200800703047
:100116009000A601BF01080004308700860188010F
:1001260089018E130800C200C40140080319B528CE
:10013600C301C30AC01BA6280310C00D0130C100AD
:100146004108C3079D280310C40D40084202031C42
:10015600B0284008C20244140310C00C0130C30288
:10016600031DA62844080800C401C501401CC12877
:100176004208C4070318C50A4308C507013003101F
:10018600C20DC30DFF3E031DC22801300310C10C72
:10019600C00CFF3E031DC92840084104031DB928B1
:1001A6004508C1004408C00008008620DC01FF3075
:1001B600DA005A08C6008030DB005B08C7005C081E
:1001C6001A214608DD004708DE004808DF00013036
:1001D600DA005A08DC07FF30DA005A08E000600847
:1001E60003190D295D0860020318FB280514FC2875
:1001F60005105E086002031802298514032985107C
:100206005F0860020318092905150A29051101303E
:10021600E002F2280510851005113430DB00F130BC
:10022600DA00DA0B1429DB0B14291929DA28D00095
:100236004608031D24294708C9004908D70047086E
:10024600D4292B30C9004908C00050089620CA009E
:100256004A08D1005108C900CA014908C0004A0825
:10026600C100D530C200FF30C300B7205008400798
:10027600D4000030031801304107D5005508C100ED
:100286005408C0000630C2000030C300B720410841
:10029600CF004008CE004708C900CA014908C0007F
:1002A6004A08C1004609CB00CC014B08C2004C08E5
:1002B600C300B7204108CD004D08D6004F08C30043
:1002C6004E08C2004608C900CA014908C0004A08CB
:1002D600C100B7204108FF3ACB00CC014B08D4003F
:1002E6004C08D5004708C900CA014908C0004A0899
:1002F600C1005508C3005408C200B7204108CB000E
:100306004B08D200FF30C9004E084902C2004F090F
:100316000318013EC3004608CA00CB014A08C000C4
:100326004B08C100B7204108FF3ACC00CD014C086C
:10033600D4004D08D5004708C900CA014908C000C5
:100346004A08C1005508C3005408C200B720410836
:10035600CB004B08D300E6294708C9004908D70057
:100366005308BA295208C9004908D7004708C900E6
:100376004908D8005608E2295608C9004908D70096
:100386004708C9004908D8005308E2295608C90099
:100396004908D7005208D4295308C9004908D7008C
:1003A6005608C9004908D8004708E2294708C90085
:1003B6004908D7005608C9004908D8005208C9009C
:1003C6004908D900F7295108003A0319AF29013A1B
:1003D6000319B529033A0319BF29013A0319C92993
:1003E600073A0319CF29D9295708C6005808C70064
:0A03F6005908C80008008301D82848
:02400E00E63E8C
:00000001FF
